{
  "_format": "hh-sol-artifact-1",
  "contractName": "KokoToken",
  "sourceName": "contracts/ERC20.sol",
  "abi": [
    {
      "inputs": [],
      "stateMutability": "nonpayable",
      "type": "constructor"
    },
    {
      "anonymous": false,
      "inputs": [
        {
          "indexed": true,
          "internalType": "address",
          "name": "owner",
          "type": "address"
        },
        {
          "indexed": true,
          "internalType": "address",
          "name": "spender",
          "type": "address"
        },
        {
          "indexed": false,
          "internalType": "uint256",
          "name": "value",
          "type": "uint256"
        }
      ],
      "name": "Approval",
      "type": "event"
    },
    {
      "anonymous": false,
      "inputs": [
        {
          "indexed": true,
          "internalType": "address",
          "name": "previousOwner",
          "type": "address"
        },
        {
          "indexed": true,
          "internalType": "address",
          "name": "newOwner",
          "type": "address"
        }
      ],
      "name": "OwnershipTransferred",
      "type": "event"
    },
    {
      "anonymous": false,
      "inputs": [
        {
          "indexed": false,
          "internalType": "address",
          "name": "token",
          "type": "address"
        },
        {
          "indexed": false,
          "internalType": "uint256",
          "name": "amount",
          "type": "uint256"
        }
      ],
      "name": "Recovered",
      "type": "event"
    },
    {
      "anonymous": false,
      "inputs": [
        {
          "indexed": false,
          "internalType": "uint256",
          "name": "reward",
          "type": "uint256"
        }
      ],
      "name": "RewardAdded",
      "type": "event"
    },
    {
      "anonymous": false,
      "inputs": [
        {
          "indexed": true,
          "internalType": "address",
          "name": "user",
          "type": "address"
        },
        {
          "indexed": false,
          "internalType": "uint256",
          "name": "reward",
          "type": "uint256"
        }
      ],
      "name": "RewardPaid",
      "type": "event"
    },
    {
      "anonymous": false,
      "inputs": [
        {
          "indexed": false,
          "internalType": "uint256",
          "name": "newDuration",
          "type": "uint256"
        }
      ],
      "name": "RewardsDurationUpdated",
      "type": "event"
    },
    {
      "anonymous": false,
      "inputs": [
        {
          "indexed": true,
          "internalType": "address",
          "name": "user",
          "type": "address"
        },
        {
          "indexed": false,
          "internalType": "uint256",
          "name": "amount",
          "type": "uint256"
        }
      ],
      "name": "Staked",
      "type": "event"
    },
    {
      "anonymous": false,
      "inputs": [
        {
          "indexed": true,
          "internalType": "address",
          "name": "from",
          "type": "address"
        },
        {
          "indexed": true,
          "internalType": "address",
          "name": "to",
          "type": "address"
        },
        {
          "indexed": false,
          "internalType": "uint256",
          "name": "value",
          "type": "uint256"
        }
      ],
      "name": "Transfer",
      "type": "event"
    },
    {
      "anonymous": false,
      "inputs": [
        {
          "indexed": true,
          "internalType": "address",
          "name": "user",
          "type": "address"
        },
        {
          "indexed": false,
          "internalType": "uint256",
          "name": "amount",
          "type": "uint256"
        }
      ],
      "name": "Withdrawn",
      "type": "event"
    },
    {
      "inputs": [],
      "name": "allStakeholders",
      "outputs": [
        {
          "internalType": "address[]",
          "name": "",
          "type": "address[]"
        }
      ],
      "stateMutability": "view",
      "type": "function"
    },
    {
      "inputs": [
        {
          "internalType": "address",
          "name": "owner",
          "type": "address"
        },
        {
          "internalType": "address",
          "name": "spender",
          "type": "address"
        }
      ],
      "name": "allowance",
      "outputs": [
        {
          "internalType": "uint256",
          "name": "",
          "type": "uint256"
        }
      ],
      "stateMutability": "view",
      "type": "function"
    },
    {
      "inputs": [
        {
          "internalType": "address",
          "name": "spender",
          "type": "address"
        },
        {
          "internalType": "uint256",
          "name": "amount",
          "type": "uint256"
        }
      ],
      "name": "approve",
      "outputs": [
        {
          "internalType": "bool",
          "name": "",
          "type": "bool"
        }
      ],
      "stateMutability": "nonpayable",
      "type": "function"
    },
    {
      "inputs": [
        {
          "internalType": "address",
          "name": "account",
          "type": "address"
        }
      ],
      "name": "balanceOf",
      "outputs": [
        {
          "internalType": "uint256",
          "name": "",
          "type": "uint256"
        }
      ],
      "stateMutability": "view",
      "type": "function"
    },
    {
      "inputs": [
        {
          "internalType": "address",
          "name": "buyer",
          "type": "address"
        }
      ],
      "name": "buyToken",
      "outputs": [
        {
          "internalType": "uint256",
          "name": "amount",
          "type": "uint256"
        }
      ],
      "stateMutability": "payable",
      "type": "function"
    },
    {
      "inputs": [
        {
          "internalType": "address",
          "name": "staker",
          "type": "address"
        }
      ],
      "name": "calculateStakeReward",
      "outputs": [
        {
          "internalType": "uint256",
          "name": "",
          "type": "uint256"
        }
      ],
      "stateMutability": "view",
      "type": "function"
    },
    {
      "inputs": [
        {
          "internalType": "address",
          "name": "staker",
          "type": "address"
        }
      ],
      "name": "checkRewardDueDate",
      "outputs": [
        {
          "internalType": "uint256",
          "name": "",
          "type": "uint256"
        }
      ],
      "stateMutability": "view",
      "type": "function"
    },
    {
      "inputs": [
        {
          "internalType": "address",
          "name": "stakeholder_address",
          "type": "address"
        }
      ],
      "name": "checkStakeholder",
      "outputs": [
        {
          "internalType": "bool",
          "name": "",
          "type": "bool"
        },
        {
          "internalType": "uint256",
          "name": "",
          "type": "uint256"
        }
      ],
      "stateMutability": "view",
      "type": "function"
    },
    {
      "inputs": [],
      "name": "claimReward",
      "outputs": [],
      "stateMutability": "nonpayable",
      "type": "function"
    },
    {
      "inputs": [],
      "name": "combinedStake",
      "outputs": [
        {
          "internalType": "uint256",
          "name": "",
          "type": "uint256"
        }
      ],
      "stateMutability": "view",
      "type": "function"
    },
    {
      "inputs": [
        {
          "internalType": "uint256",
          "name": "stakeamount",
          "type": "uint256"
        }
      ],
      "name": "createStake",
      "outputs": [],
      "stateMutability": "nonpayable",
      "type": "function"
    },
    {
      "inputs": [],
      "name": "decimals",
      "outputs": [
        {
          "internalType": "uint8",
          "name": "",
          "type": "uint8"
        }
      ],
      "stateMutability": "view",
      "type": "function"
    },
    {
      "inputs": [
        {
          "internalType": "address",
          "name": "spender",
          "type": "address"
        },
        {
          "internalType": "uint256",
          "name": "subtractedValue",
          "type": "uint256"
        }
      ],
      "name": "decreaseAllowance",
      "outputs": [
        {
          "internalType": "bool",
          "name": "",
          "type": "bool"
        }
      ],
      "stateMutability": "nonpayable",
      "type": "function"
    },
    {
      "inputs": [
        {
          "internalType": "address",
          "name": "spender",
          "type": "address"
        },
        {
          "internalType": "uint256",
          "name": "addedValue",
          "type": "uint256"
        }
      ],
      "name": "increaseAllowance",
      "outputs": [
        {
          "internalType": "bool",
          "name": "",
          "type": "bool"
        }
      ],
      "stateMutability": "nonpayable",
      "type": "function"
    },
    {
      "inputs": [
        {
          "internalType": "uint256",
          "name": "newRate",
          "type": "uint256"
        }
      ],
      "name": "modifyTokenBuyPrice",
      "outputs": [],
      "stateMutability": "nonpayable",
      "type": "function"
    },
    {
      "inputs": [],
      "name": "name",
      "outputs": [
        {
          "internalType": "string",
          "name": "",
          "type": "string"
        }
      ],
      "stateMutability": "view",
      "type": "function"
    },
    {
      "inputs": [],
      "name": "owner",
      "outputs": [
        {
          "internalType": "address",
          "name": "",
          "type": "address"
        }
      ],
      "stateMutability": "view",
      "type": "function"
    },
    {
      "inputs": [],
      "name": "rate",
      "outputs": [
        {
          "internalType": "uint256",
          "name": "",
          "type": "uint256"
        }
      ],
      "stateMutability": "view",
      "type": "function"
    },
    {
      "inputs": [
        {
          "internalType": "uint256",
          "name": "stakeamount",
          "type": "uint256"
        }
      ],
      "name": "removeStake",
      "outputs": [],
      "stateMutability": "nonpayable",
      "type": "function"
    },
    {
      "inputs": [],
      "name": "renounceOwnership",
      "outputs": [],
      "stateMutability": "nonpayable",
      "type": "function"
    },
    {
      "inputs": [
        {
          "internalType": "address",
          "name": "",
          "type": "address"
        }
      ],
      "name": "rewardDueDate",
      "outputs": [
        {
          "internalType": "uint256",
          "name": "",
          "type": "uint256"
        }
      ],
      "stateMutability": "view",
      "type": "function"
    },
    {
      "inputs": [],
      "name": "stakeOf",
      "outputs": [
        {
          "internalType": "uint256",
          "name": "",
          "type": "uint256"
        }
      ],
      "stateMutability": "view",
      "type": "function"
    },
    {
      "inputs": [],
      "name": "symbol",
      "outputs": [
        {
          "internalType": "string",
          "name": "",
          "type": "string"
        }
      ],
      "stateMutability": "view",
      "type": "function"
    },
    {
      "inputs": [],
      "name": "totalSupply",
      "outputs": [
        {
          "internalType": "uint256",
          "name": "",
          "type": "uint256"
        }
      ],
      "stateMutability": "view",
      "type": "function"
    },
    {
      "inputs": [
        {
          "internalType": "address",
          "name": "to",
          "type": "address"
        },
        {
          "internalType": "uint256",
          "name": "amount",
          "type": "uint256"
        }
      ],
      "name": "transfer",
      "outputs": [
        {
          "internalType": "bool",
          "name": "",
          "type": "bool"
        }
      ],
      "stateMutability": "nonpayable",
      "type": "function"
    },
    {
      "inputs": [
        {
          "internalType": "address",
          "name": "from",
          "type": "address"
        },
        {
          "internalType": "address",
          "name": "to",
          "type": "address"
        },
        {
          "internalType": "uint256",
          "name": "amount",
          "type": "uint256"
        }
      ],
      "name": "transferFrom",
      "outputs": [
        {
          "internalType": "bool",
          "name": "",
          "type": "bool"
        }
      ],
      "stateMutability": "nonpayable",
      "type": "function"
    },
    {
      "inputs": [
        {
          "internalType": "address",
          "name": "newOwner",
          "type": "address"
        }
      ],
      "name": "transferOwnership",
      "outputs": [],
      "stateMutability": "nonpayable",
      "type": "function"
    }
  ],
  "bytecode": "0x60806040526103e86007553480156200001757600080fd5b506040518060400160405280600981526020017f4b6f6b6f546f6b656e00000000000000000000000000000000000000000000008152506040518060400160405280600381526020017f4b544b000000000000000000000000000000000000000000000000000000000081525081600390805190602001906200009c92919062000376565b508060049080519060200190620000b592919062000376565b505050620000d8620000cc6200011c60201b60201c565b6200012460201b60201c565b6200011633620000ed620001ea60201b60201c565b600a620000fb919062000566565b6103e86200010a9190620006a3565b620001f360201b60201c565b620007e5565b600033905090565b6000600560009054906101000a900473ffffffffffffffffffffffffffffffffffffffff16905081600560006101000a81548173ffffffffffffffffffffffffffffffffffffffff021916908373ffffffffffffffffffffffffffffffffffffffff1602179055508173ffffffffffffffffffffffffffffffffffffffff168173ffffffffffffffffffffffffffffffffffffffff167f8be0079c531659141344cd1fd0a4f28419497f9722a3daafe3b4186f6b6457e060405160405180910390a35050565b60006012905090565b600073ffffffffffffffffffffffffffffffffffffffff168273ffffffffffffffffffffffffffffffffffffffff16141562000266576040517f08c379a00000000000000000000000000000000000000000000000000000000081526004016200025d906200045e565b60405180910390fd5b6200027a600083836200036c60201b60201c565b80600260008282546200028e9190620004ae565b92505081905550806000808473ffffffffffffffffffffffffffffffffffffffff1673ffffffffffffffffffffffffffffffffffffffff1681526020019081526020016000206000828254620002e59190620004ae565b925050819055508173ffffffffffffffffffffffffffffffffffffffff16600073ffffffffffffffffffffffffffffffffffffffff167fddf252ad1be2c89b69c2b068fc378daa952ba7f163c4a11628f55a4df523b3ef836040516200034c919062000480565b60405180910390a362000368600083836200037160201b60201c565b5050565b505050565b505050565b82805462000384906200071b565b90600052602060002090601f016020900481019282620003a85760008555620003f4565b82601f10620003c357805160ff1916838001178555620003f4565b82800160010185558215620003f4579182015b82811115620003f3578251825591602001919060010190620003d6565b5b50905062000403919062000407565b5090565b5b808211156200042257600081600090555060010162000408565b5090565b600062000435601f836200049d565b91506200044282620007bc565b602082019050919050565b620004588162000704565b82525050565b60006020820190508181036000830152620004798162000426565b9050919050565b60006020820190506200049760008301846200044d565b92915050565b600082825260208201905092915050565b6000620004bb8262000704565b9150620004c88362000704565b9250827fffffffffffffffffffffffffffffffffffffffffffffffffffffffffffffffff038211156200050057620004ff62000751565b5b828201905092915050565b6000808291508390505b60018511156200055d5780860481111562000535576200053462000751565b5b6001851615620005455780820291505b80810290506200055585620007af565b945062000515565b94509492505050565b6000620005738262000704565b915062000580836200070e565b9250620005af7fffffffffffffffffffffffffffffffffffffffffffffffffffffffffffffffff8484620005b7565b905092915050565b600082620005c957600190506200069c565b81620005d957600090506200069c565b8160018114620005f25760028114620005fd5762000633565b60019150506200069c565b60ff84111562000612576200061162000751565b5b8360020a9150848211156200062c576200062b62000751565b5b506200069c565b5060208310610133831016604e8410600b84101617156200066d5782820a90508381111562000667576200066662000751565b5b6200069c565b6200067c84848460016200050b565b9250905081840481111562000696576200069562000751565b5b81810290505b9392505050565b6000620006b08262000704565b9150620006bd8362000704565b9250817fffffffffffffffffffffffffffffffffffffffffffffffffffffffffffffffff0483118215151615620006f957620006f862000751565b5b828202905092915050565b6000819050919050565b600060ff82169050919050565b600060028204905060018216806200073457607f821691505b602082108114156200074b576200074a62000780565b5b50919050565b7f4e487b7100000000000000000000000000000000000000000000000000000000600052601160045260246000fd5b7f4e487b7100000000000000000000000000000000000000000000000000000000600052602260045260246000fd5b60008160011c9050919050565b7f45524332303a206d696e7420746f20746865207a65726f206164647265737300600082015250565b612ea480620007f56000396000f3fe60806040526004361061019c5760003560e01c8063834dc984116100ec578063ad5b8fee1161008a578063d6960d1211610064578063d6960d12146105f7578063dd62ed3e14610622578063f2fde38b1461065f578063faf703ed146106885761019c565b8063ad5b8fee14610578578063b88a802f146105a3578063d59684ab146105ba5761019c565b806395d89b41116100c657806395d89b4114610496578063a457c2d7146104c1578063a65d550d146104fe578063a9059cbb1461053b5761019c565b8063834dc984146104195780638da5cb5b14610442578063939624ab1461046d5761019c565b8063313ce567116101595780637104dd0d116101335780637104dd0d1461036a578063715018a6146103955780637de7b9f4146103ac5780637e72fb52146103e95761019c565b8063313ce567146102c557806339509351146102f057806370a082311461032d5761019c565b806306fdde03146101a1578063095ea7b3146101cc57806318160ddd146102095780631bf6ddae1461023457806323b872dd1461025d5780632c4e722e1461029a575b600080fd5b3480156101ad57600080fd5b506101b66106c6565b6040516101c391906124b7565b60405180910390f35b3480156101d857600080fd5b506101f360048036038101906101ee91906120c2565b610758565b6040516102009190612473565b60405180910390f35b34801561021557600080fd5b5061021e61077b565b60405161022b91906126b9565b60405180910390f35b34801561024057600080fd5b5061025b60048036038101906102569190612102565b610785565b005b34801561026957600080fd5b50610284600480360381019061027f919061206f565b610924565b6040516102919190612473565b60405180910390f35b3480156102a657600080fd5b506102af610953565b6040516102bc91906126b9565b60405180910390f35b3480156102d157600080fd5b506102da610959565b6040516102e791906126d4565b60405180910390f35b3480156102fc57600080fd5b50610317600480360381019061031291906120c2565b610962565b6040516103249190612473565b60405180910390f35b34801561033957600080fd5b50610354600480360381019061034f9190612002565b610a0c565b60405161036191906126b9565b60405180910390f35b34801561037657600080fd5b5061037f610a54565b60405161038c91906126b9565b60405180910390f35b3480156103a157600080fd5b506103aa610b19565b005b3480156103b857600080fd5b506103d360048036038101906103ce9190612002565b610ba1565b6040516103e091906126b9565b60405180910390f35b61040360048036038101906103fe9190612002565b610bea565b60405161041091906126b9565b60405180910390f35b34801561042557600080fd5b50610440600480360381019061043b9190612102565b610c4d565b005b34801561044e57600080fd5b50610457610cd3565b6040516104649190612436565b60405180910390f35b34801561047957600080fd5b50610494600480360381019061048f9190612102565b610cfd565b005b3480156104a257600080fd5b506104ab610e07565b6040516104b891906124b7565b60405180910390f35b3480156104cd57600080fd5b506104e860048036038101906104e391906120c2565b610e99565b6040516104f59190612473565b60405180910390f35b34801561050a57600080fd5b5061052560048036038101906105209190612002565b610f83565b60405161053291906126b9565b60405180910390f35b34801561054757600080fd5b50610562600480360381019061055d91906120c2565b610f9b565b60405161056f9190612473565b60405180910390f35b34801561058457600080fd5b5061058d610fbe565b60405161059a9190612451565b60405180910390f35b3480156105af57600080fd5b506105b86110c8565b005b3480156105c657600080fd5b506105e160048036038101906105dc9190612002565b611261565b6040516105ee91906126b9565b60405180910390f35b34801561060357600080fd5b5061060c6112c2565b60405161061991906126b9565b60405180910390f35b34801561062e57600080fd5b506106496004803603810190610644919061202f565b611309565b60405161065691906126b9565b60405180910390f35b34801561066b57600080fd5b5061068660048036038101906106819190612002565b611390565b005b34801561069457600080fd5b506106af60048036038101906106aa9190612002565b611488565b6040516106bd92919061248e565b60405180910390f35b6060600380546106d5906128e1565b80601f0160208091040260200160405190810160405280929190818152602001828054610701906128e1565b801561074e5780601f106107235761010080835404028352916020019161074e565b820191906000526020600020905b81548152906001019060200180831161073157829003601f168201915b5050505050905090565b60008061076361153b565b9050610770818585611543565b600191505092915050565b6000600254905090565b600081116107c8576040517f08c379a00000000000000000000000000000000000000000000000000000000081526004016107bf90612519565b60405180910390fd5b670de0b6b3a7640000816107dc91906127cb565b90506107e8338261170e565b6000600860003373ffffffffffffffffffffffffffffffffffffffff1673ffffffffffffffffffffffffffffffffffffffff16815260200190815260200160002054141561083a57610839336118e5565b5b61088c81600860003373ffffffffffffffffffffffffffffffffffffffff1673ffffffffffffffffffffffffffffffffffffffff1681526020019081526020016000205461196090919063ffffffff16565b600860003373ffffffffffffffffffffffffffffffffffffffff1673ffffffffffffffffffffffffffffffffffffffff1681526020019081526020016000208190555062093a80426108de9190612744565b600b60003373ffffffffffffffffffffffffffffffffffffffff1673ffffffffffffffffffffffffffffffffffffffff1681526020019081526020016000208190555050565b60008061092f61153b565b905061093c858285611976565b610947858585611a02565b60019150509392505050565b60075481565b60006012905090565b60008061096d61153b565b9050610a01818585600160008673ffffffffffffffffffffffffffffffffffffffff1673ffffffffffffffffffffffffffffffffffffffff16815260200190815260200160002060008973ffffffffffffffffffffffffffffffffffffffff1673ffffffffffffffffffffffffffffffffffffffff168152602001908152602001600020546109fc9190612744565b611543565b600191505092915050565b60008060008373ffffffffffffffffffffffffffffffffffffffff1673ffffffffffffffffffffffffffffffffffffffff168152602001908152602001600020549050919050565b6000806000905060005b600680549050811015610b1157610afb6008600060068481548110610a8657610a85612a18565b5b9060005260206000200160009054906101000a900473ffffffffffffffffffffffffffffffffffffffff1673ffffffffffffffffffffffffffffffffffffffff1673ffffffffffffffffffffffffffffffffffffffff168152602001908152602001600020548361196090919063ffffffff16565b9150600181610b0a9190612744565b9050610a5e565b508091505090565b610b2161153b565b73ffffffffffffffffffffffffffffffffffffffff16610b3f610cd3565b73ffffffffffffffffffffffffffffffffffffffff1614610b95576040517f08c379a0000000000000000000000000000000000000000000000000000000008152600401610b8c906125f9565b60405180910390fd5b610b9f6000611c83565b565b6000600b60008373ffffffffffffffffffffffffffffffffffffffff1673ffffffffffffffffffffffffffffffffffffffff168152602001908152602001600020549050919050565b6000803411610c2e576040517f08c379a0000000000000000000000000000000000000000000000000000000008152600401610c25906125d9565b60405180910390fd5b60075434610c3c91906127cb565b9050610c488282611d49565b919050565b610c5561153b565b73ffffffffffffffffffffffffffffffffffffffff16610c73610cd3565b73ffffffffffffffffffffffffffffffffffffffff1614610cc9576040517f08c379a0000000000000000000000000000000000000000000000000000000008152600401610cc0906125f9565b60405180910390fd5b8060078190555050565b6000600560009054906101000a900473ffffffffffffffffffffffffffffffffffffffff16905090565b670de0b6b3a764000081610d1191906127cb565b9050610d6581600860003373ffffffffffffffffffffffffffffffffffffffff1673ffffffffffffffffffffffffffffffffffffffff16815260200190815260200160002054611ea990919063ffffffff16565b600860003373ffffffffffffffffffffffffffffffffffffffff1673ffffffffffffffffffffffffffffffffffffffff168152602001908152602001600020819055506000600860003373ffffffffffffffffffffffffffffffffffffffff1673ffffffffffffffffffffffffffffffffffffffff168152602001908152602001600020541415610dfa57610df933611ebf565b5b610e043382611d49565b50565b606060048054610e16906128e1565b80601f0160208091040260200160405190810160405280929190818152602001828054610e42906128e1565b8015610e8f5780601f10610e6457610100808354040283529160200191610e8f565b820191906000526020600020905b815481529060010190602001808311610e7257829003601f168201915b5050505050905090565b600080610ea461153b565b90506000600160008373ffffffffffffffffffffffffffffffffffffffff1673ffffffffffffffffffffffffffffffffffffffff16815260200190815260200160002060008673ffffffffffffffffffffffffffffffffffffffff1673ffffffffffffffffffffffffffffffffffffffff16815260200190815260200160002054905083811015610f6a576040517f08c379a0000000000000000000000000000000000000000000000000000000008152600401610f6190612679565b60405180910390fd5b610f778286868403611543565b60019250505092915050565b600b6020528060005260406000206000915090505481565b600080610fa661153b565b9050610fb3818585611a02565b600191505092915050565b6060610fc861153b565b73ffffffffffffffffffffffffffffffffffffffff16610fe6610cd3565b73ffffffffffffffffffffffffffffffffffffffff161461103c576040517f08c379a0000000000000000000000000000000000000000000000000000000008152600401611033906125f9565b60405180910390fd5b60068054806020026020016040519081016040528092919081815260200182805480156110be57602002820191906000526020600020905b8160009054906101000a900473ffffffffffffffffffffffffffffffffffffffff1673ffffffffffffffffffffffffffffffffffffffff1681526020019060010190808311611074575b5050505050905090565b600b60003373ffffffffffffffffffffffffffffffffffffffff1673ffffffffffffffffffffffffffffffffffffffff1681526020019081526020016000205442101561114a576040517f08c379a0000000000000000000000000000000000000000000000000000000008152600401611141906124f9565b60405180910390fd5b610e10600b60003373ffffffffffffffffffffffffffffffffffffffff1673ffffffffffffffffffffffffffffffffffffffff168152602001908152602001600020546111979190612744565b42106111f45762093a80426111ac9190612744565b600b60003373ffffffffffffffffffffffffffffffffffffffff1673ffffffffffffffffffffffffffffffffffffffff1681526020019081526020016000208190555061125f565b60006111ff33611261565b905062093a80426112109190612744565b600b60003373ffffffffffffffffffffffffffffffffffffffff1673ffffffffffffffffffffffffffffffffffffffff1681526020019081526020016000208190555061125d3382611d49565b505b565b600060646001600860008573ffffffffffffffffffffffffffffffffffffffff1673ffffffffffffffffffffffffffffffffffffffff168152602001908152602001600020546112b191906127cb565b6112bb919061279a565b9050919050565b6000600860003373ffffffffffffffffffffffffffffffffffffffff1673ffffffffffffffffffffffffffffffffffffffff16815260200190815260200160002054905090565b6000600160008473ffffffffffffffffffffffffffffffffffffffff1673ffffffffffffffffffffffffffffffffffffffff16815260200190815260200160002060008373ffffffffffffffffffffffffffffffffffffffff1673ffffffffffffffffffffffffffffffffffffffff16815260200190815260200160002054905092915050565b61139861153b565b73ffffffffffffffffffffffffffffffffffffffff166113b6610cd3565b73ffffffffffffffffffffffffffffffffffffffff161461140c576040517f08c379a0000000000000000000000000000000000000000000000000000000008152600401611403906125f9565b60405180910390fd5b600073ffffffffffffffffffffffffffffffffffffffff168173ffffffffffffffffffffffffffffffffffffffff16141561147c576040517f08c379a000000000000000000000000000000000000000000000000000000000815260040161147390612559565b60405180910390fd5b61148581611c83565b50565b60008060005b60068054905081101561152d57600681815481106114af576114ae612a18565b5b9060005260206000200160009054906101000a900473ffffffffffffffffffffffffffffffffffffffff1673ffffffffffffffffffffffffffffffffffffffff168473ffffffffffffffffffffffffffffffffffffffff16141561151a576001819250925050611536565b808061152590612913565b91505061148e565b50600080915091505b915091565b600033905090565b600073ffffffffffffffffffffffffffffffffffffffff168373ffffffffffffffffffffffffffffffffffffffff1614156115b3576040517f08c379a00000000000000000000000000000000000000000000000000000000081526004016115aa90612659565b60405180910390fd5b600073ffffffffffffffffffffffffffffffffffffffff168273ffffffffffffffffffffffffffffffffffffffff161415611623576040517f08c379a000000000000000000000000000000000000000000000000000000000815260040161161a90612579565b60405180910390fd5b80600160008573ffffffffffffffffffffffffffffffffffffffff1673ffffffffffffffffffffffffffffffffffffffff16815260200190815260200160002060008473ffffffffffffffffffffffffffffffffffffffff1673ffffffffffffffffffffffffffffffffffffffff168152602001908152602001600020819055508173ffffffffffffffffffffffffffffffffffffffff168373ffffffffffffffffffffffffffffffffffffffff167f8c5be1e5ebec7d5bd14f71427d1e84f3dd0314c0f7b2291e5b200ac8c7c3b9258360405161170191906126b9565b60405180910390a3505050565b600073ffffffffffffffffffffffffffffffffffffffff168273ffffffffffffffffffffffffffffffffffffffff16141561177e576040517f08c379a000000000000000000000000000000000000000000000000000000000815260040161177590612619565b60405180910390fd5b61178a82600083611fce565b60008060008473ffffffffffffffffffffffffffffffffffffffff1673ffffffffffffffffffffffffffffffffffffffff16815260200190815260200160002054905081811015611810576040517f08c379a000000000000000000000000000000000000000000000000000000000815260040161180790612539565b60405180910390fd5b8181036000808573ffffffffffffffffffffffffffffffffffffffff1673ffffffffffffffffffffffffffffffffffffffff1681526020019081526020016000208190555081600260008282546118679190612825565b92505081905550600073ffffffffffffffffffffffffffffffffffffffff168373ffffffffffffffffffffffffffffffffffffffff167fddf252ad1be2c89b69c2b068fc378daa952ba7f163c4a11628f55a4df523b3ef846040516118cc91906126b9565b60405180910390a36118e083600084611fd3565b505050565b60006118f082611488565b5090508061195c576006829080600181540180825580915050600190039060005260206000200160009091909190916101000a81548173ffffffffffffffffffffffffffffffffffffffff021916908373ffffffffffffffffffffffffffffffffffffffff1602179055505b5050565b6000818361196e9190612744565b905092915050565b60006119828484611309565b90507fffffffffffffffffffffffffffffffffffffffffffffffffffffffffffffffff81146119fc57818110156119ee576040517f08c379a00000000000000000000000000000000000000000000000000000000081526004016119e590612599565b60405180910390fd5b6119fb8484848403611543565b5b50505050565b600073ffffffffffffffffffffffffffffffffffffffff168373ffffffffffffffffffffffffffffffffffffffff161415611a72576040517f08c379a0000000000000000000000000000000000000000000000000000000008152600401611a6990612639565b60405180910390fd5b600073ffffffffffffffffffffffffffffffffffffffff168273ffffffffffffffffffffffffffffffffffffffff161415611ae2576040517f08c379a0000000000000000000000000000000000000000000000000000000008152600401611ad9906124d9565b60405180910390fd5b611aed838383611fce565b60008060008573ffffffffffffffffffffffffffffffffffffffff1673ffffffffffffffffffffffffffffffffffffffff16815260200190815260200160002054905081811015611b73576040517f08c379a0000000000000000000000000000000000000000000000000000000008152600401611b6a906125b9565b60405180910390fd5b8181036000808673ffffffffffffffffffffffffffffffffffffffff1673ffffffffffffffffffffffffffffffffffffffff16815260200190815260200160002081905550816000808573ffffffffffffffffffffffffffffffffffffffff1673ffffffffffffffffffffffffffffffffffffffff1681526020019081526020016000206000828254611c069190612744565b925050819055508273ffffffffffffffffffffffffffffffffffffffff168473ffffffffffffffffffffffffffffffffffffffff167fddf252ad1be2c89b69c2b068fc378daa952ba7f163c4a11628f55a4df523b3ef84604051611c6a91906126b9565b60405180910390a3611c7d848484611fd3565b50505050565b6000600560009054906101000a900473ffffffffffffffffffffffffffffffffffffffff16905081600560006101000a81548173ffffffffffffffffffffffffffffffffffffffff021916908373ffffffffffffffffffffffffffffffffffffffff1602179055508173ffffffffffffffffffffffffffffffffffffffff168173ffffffffffffffffffffffffffffffffffffffff167f8be0079c531659141344cd1fd0a4f28419497f9722a3daafe3b4186f6b6457e060405160405180910390a35050565b600073ffffffffffffffffffffffffffffffffffffffff168273ffffffffffffffffffffffffffffffffffffffff161415611db9576040517f08c379a0000000000000000000000000000000000000000000000000000000008152600401611db090612699565b60405180910390fd5b611dc560008383611fce565b8060026000828254611dd79190612744565b92505081905550806000808473ffffffffffffffffffffffffffffffffffffffff1673ffffffffffffffffffffffffffffffffffffffff1681526020019081526020016000206000828254611e2c9190612744565b925050819055508173ffffffffffffffffffffffffffffffffffffffff16600073ffffffffffffffffffffffffffffffffffffffff167fddf252ad1be2c89b69c2b068fc378daa952ba7f163c4a11628f55a4df523b3ef83604051611e9191906126b9565b60405180910390a3611ea560008383611fd3565b5050565b60008183611eb79190612825565b905092915050565b600080611ecb83611488565b915091508115611fc95760066001600680549050611ee99190612825565b81548110611efa57611ef9612a18565b5b9060005260206000200160009054906101000a900473ffffffffffffffffffffffffffffffffffffffff1660068281548110611f3957611f38612a18565b5b9060005260206000200160006101000a81548173ffffffffffffffffffffffffffffffffffffffff021916908373ffffffffffffffffffffffffffffffffffffffff1602179055506006805480611f9357611f926129e9565b5b6001900381819060005260206000200160006101000a81549073ffffffffffffffffffffffffffffffffffffffff021916905590555b505050565b505050565b505050565b600081359050611fe781612e40565b92915050565b600081359050611ffc81612e57565b92915050565b60006020828403121561201857612017612a47565b5b600061202684828501611fd8565b91505092915050565b6000806040838503121561204657612045612a47565b5b600061205485828601611fd8565b925050602061206585828601611fd8565b9150509250929050565b60008060006060848603121561208857612087612a47565b5b600061209686828701611fd8565b93505060206120a786828701611fd8565b92505060406120b886828701611fed565b9150509250925092565b600080604083850312156120d9576120d8612a47565b5b60006120e785828601611fd8565b92505060206120f885828601611fed565b9150509250929050565b60006020828403121561211857612117612a47565b5b600061212684828501611fed565b91505092915050565b600061213b8383612147565b60208301905092915050565b61215081612859565b82525050565b61215f81612859565b82525050565b6000612170826126ff565b61217a8185612722565b9350612185836126ef565b8060005b838110156121b657815161219d888261212f565b97506121a883612715565b925050600181019050612189565b5085935050505092915050565b6121cc8161286b565b82525050565b60006121dd8261270a565b6121e78185612733565b93506121f78185602086016128ae565b61220081612a4c565b840191505092915050565b6000612218602383612733565b915061222382612a5d565b604082019050919050565b600061223b601783612733565b915061224682612aac565b602082019050919050565b600061225e601b83612733565b915061226982612ad5565b602082019050919050565b6000612281602283612733565b915061228c82612afe565b604082019050919050565b60006122a4602683612733565b91506122af82612b4d565b604082019050919050565b60006122c7602283612733565b91506122d282612b9c565b604082019050919050565b60006122ea601d83612733565b91506122f582612beb565b602082019050919050565b600061230d602683612733565b915061231882612c14565b604082019050919050565b6000612330602383612733565b915061233b82612c63565b604082019050919050565b6000612353602083612733565b915061235e82612cb2565b602082019050919050565b6000612376602183612733565b915061238182612cdb565b604082019050919050565b6000612399602583612733565b91506123a482612d2a565b604082019050919050565b60006123bc602483612733565b91506123c782612d79565b604082019050919050565b60006123df602583612733565b91506123ea82612dc8565b604082019050919050565b6000612402601f83612733565b915061240d82612e17565b602082019050919050565b61242181612897565b82525050565b612430816128a1565b82525050565b600060208201905061244b6000830184612156565b92915050565b6000602082019050818103600083015261246b8184612165565b905092915050565b600060208201905061248860008301846121c3565b92915050565b60006040820190506124a360008301856121c3565b6124b06020830184612418565b9392505050565b600060208201905081810360008301526124d181846121d2565b905092915050565b600060208201905081810360008301526124f28161220b565b9050919050565b600060208201905081810360008301526125128161222e565b9050919050565b6000602082019050818103600083015261253281612251565b9050919050565b6000602082019050818103600083015261255281612274565b9050919050565b6000602082019050818103600083015261257281612297565b9050919050565b60006020820190508181036000830152612592816122ba565b9050919050565b600060208201905081810360008301526125b2816122dd565b9050919050565b600060208201905081810360008301526125d281612300565b9050919050565b600060208201905081810360008301526125f281612323565b9050919050565b6000602082019050818103600083015261261281612346565b9050919050565b6000602082019050818103600083015261263281612369565b9050919050565b600060208201905081810360008301526126528161238c565b9050919050565b60006020820190508181036000830152612672816123af565b9050919050565b60006020820190508181036000830152612692816123d2565b9050919050565b600060208201905081810360008301526126b2816123f5565b9050919050565b60006020820190506126ce6000830184612418565b92915050565b60006020820190506126e96000830184612427565b92915050565b6000819050602082019050919050565b600081519050919050565b600081519050919050565b6000602082019050919050565b600082825260208201905092915050565b600082825260208201905092915050565b600061274f82612897565b915061275a83612897565b9250827fffffffffffffffffffffffffffffffffffffffffffffffffffffffffffffffff0382111561278f5761278e61295c565b5b828201905092915050565b60006127a582612897565b91506127b083612897565b9250826127c0576127bf61298b565b5b828204905092915050565b60006127d682612897565b91506127e183612897565b9250817fffffffffffffffffffffffffffffffffffffffffffffffffffffffffffffffff048311821515161561281a5761281961295c565b5b828202905092915050565b600061283082612897565b915061283b83612897565b92508282101561284e5761284d61295c565b5b828203905092915050565b600061286482612877565b9050919050565b60008115159050919050565b600073ffffffffffffffffffffffffffffffffffffffff82169050919050565b6000819050919050565b600060ff82169050919050565b60005b838110156128cc5780820151818401526020810190506128b1565b838111156128db576000848401525b50505050565b600060028204905060018216806128f957607f821691505b6020821081141561290d5761290c6129ba565b5b50919050565b600061291e82612897565b91507fffffffffffffffffffffffffffffffffffffffffffffffffffffffffffffffff8214156129515761295061295c565b5b600182019050919050565b7f4e487b7100000000000000000000000000000000000000000000000000000000600052601160045260246000fd5b7f4e487b7100000000000000000000000000000000000000000000000000000000600052601260045260246000fd5b7f4e487b7100000000000000000000000000000000000000000000000000000000600052602260045260246000fd5b7f4e487b7100000000000000000000000000000000000000000000000000000000600052603160045260246000fd5b7f4e487b7100000000000000000000000000000000000000000000000000000000600052603260045260246000fd5b600080fd5b6000601f19601f8301169050919050565b7f45524332303a207472616e7366657220746f20746865207a65726f206164647260008201527f6573730000000000000000000000000000000000000000000000000000000000602082015250565b7f5265776172642044617465206e6f742072656163686564000000000000000000600082015250565b7f5374616b6520416d6f756e742063616e6e6f74206265207a65726f0000000000600082015250565b7f45524332303a206275726e20616d6f756e7420657863656564732062616c616e60008201527f6365000000000000000000000000000000000000000000000000000000000000602082015250565b7f4f776e61626c653a206e6577206f776e657220697320746865207a65726f206160008201527f6464726573730000000000000000000000000000000000000000000000000000602082015250565b7f45524332303a20617070726f766520746f20746865207a65726f20616464726560008201527f7373000000000000000000000000000000000000000000000000000000000000602082015250565b7f45524332303a20696e73756666696369656e7420616c6c6f77616e6365000000600082015250565b7f45524332303a207472616e7366657220616d6f756e742065786365656473206260008201527f616c616e63650000000000000000000000000000000000000000000000000000602082015250565b7f596f75206e656564206d6f6e657920666f722074686973207472616e7361637460008201527f696f6e0000000000000000000000000000000000000000000000000000000000602082015250565b7f4f776e61626c653a2063616c6c6572206973206e6f7420746865206f776e6572600082015250565b7f45524332303a206275726e2066726f6d20746865207a65726f2061646472657360008201527f7300000000000000000000000000000000000000000000000000000000000000602082015250565b7f45524332303a207472616e736665722066726f6d20746865207a65726f20616460008201527f6472657373000000000000000000000000000000000000000000000000000000602082015250565b7f45524332303a20617070726f76652066726f6d20746865207a65726f2061646460008201527f7265737300000000000000000000000000000000000000000000000000000000602082015250565b7f45524332303a2064656372656173656420616c6c6f77616e63652062656c6f7760008201527f207a65726f000000000000000000000000000000000000000000000000000000602082015250565b7f45524332303a206d696e7420746f20746865207a65726f206164647265737300600082015250565b612e4981612859565b8114612e5457600080fd5b50565b612e6081612897565b8114612e6b57600080fd5b5056fea26469706673582212201b5b3fe39586f2812d612ae1f5cc0597738a0c36d40fea14376fd32b1b90e7c364736f6c63430008070033",
  "linkReferences": {},
  "deployedLinkReferences": {}
}